{
  "contractName": "RootTunnel",
  "abi": [
    {
      "inputs": [
        {
          "internalType": "address",
          "name": "_checkpointManager",
          "type": "address"
        },
        {
          "internalType": "address",
          "name": "_fxRoot",
          "type": "address"
        },
        {
          "internalType": "address",
          "name": "_fxERC20Token",
          "type": "address"
        }
      ],
      "stateMutability": "nonpayable",
      "type": "constructor"
    },
    {
      "anonymous": false,
      "inputs": [
        {
          "indexed": true,
          "internalType": "address",
          "name": "rootToken",
          "type": "address"
        },
        {
          "indexed": true,
          "internalType": "address",
          "name": "depositor",
          "type": "address"
        },
        {
          "indexed": true,
          "internalType": "address",
          "name": "userAddress",
          "type": "address"
        },
        {
          "indexed": false,
          "internalType": "uint256",
          "name": "amount",
          "type": "uint256"
        }
      ],
      "name": "FxDepositERC20",
      "type": "event"
    },
    {
      "anonymous": false,
      "inputs": [
        {
          "indexed": true,
          "internalType": "address",
          "name": "rootToken",
          "type": "address"
        },
        {
          "indexed": true,
          "internalType": "address",
          "name": "childToken",
          "type": "address"
        },
        {
          "indexed": true,
          "internalType": "address",
          "name": "userAddress",
          "type": "address"
        },
        {
          "indexed": false,
          "internalType": "uint256",
          "name": "amount",
          "type": "uint256"
        }
      ],
      "name": "FxWithdrawERC20",
      "type": "event"
    },
    {
      "anonymous": false,
      "inputs": [
        {
          "indexed": true,
          "internalType": "address",
          "name": "rootToken",
          "type": "address"
        },
        {
          "indexed": true,
          "internalType": "address",
          "name": "childToken",
          "type": "address"
        }
      ],
      "name": "TokenMappedERC20",
      "type": "event"
    },
    {
      "inputs": [],
      "name": "DEPOSIT",
      "outputs": [
        {
          "internalType": "bytes32",
          "name": "",
          "type": "bytes32"
        }
      ],
      "stateMutability": "view",
      "type": "function"
    },
    {
      "inputs": [],
      "name": "MAP_TOKEN",
      "outputs": [
        {
          "internalType": "bytes32",
          "name": "",
          "type": "bytes32"
        }
      ],
      "stateMutability": "view",
      "type": "function"
    },
    {
      "inputs": [],
      "name": "SEND_MESSAGE_EVENT_SIG",
      "outputs": [
        {
          "internalType": "bytes32",
          "name": "",
          "type": "bytes32"
        }
      ],
      "stateMutability": "view",
      "type": "function"
    },
    {
      "inputs": [],
      "name": "checkpointManager",
      "outputs": [
        {
          "internalType": "contract ICheckpointManager",
          "name": "",
          "type": "address"
        }
      ],
      "stateMutability": "view",
      "type": "function"
    },
    {
      "inputs": [],
      "name": "childTokenTemplateCodeHash",
      "outputs": [
        {
          "internalType": "bytes32",
          "name": "",
          "type": "bytes32"
        }
      ],
      "stateMutability": "view",
      "type": "function"
    },
    {
      "inputs": [
        {
          "internalType": "bytes32",
          "name": "salt",
          "type": "bytes32"
        },
        {
          "internalType": "bytes32",
          "name": "bytecodeHash",
          "type": "bytes32"
        },
        {
          "internalType": "address",
          "name": "deployer",
          "type": "address"
        }
      ],
      "name": "computedCreate2Address",
      "outputs": [
        {
          "internalType": "address",
          "name": "",
          "type": "address"
        }
      ],
      "stateMutability": "pure",
      "type": "function"
    },
    {
      "inputs": [],
      "name": "fxChildTunnel",
      "outputs": [
        {
          "internalType": "address",
          "name": "",
          "type": "address"
        }
      ],
      "stateMutability": "view",
      "type": "function"
    },
    {
      "inputs": [],
      "name": "fxRoot",
      "outputs": [
        {
          "internalType": "contract IFxStateSender",
          "name": "",
          "type": "address"
        }
      ],
      "stateMutability": "view",
      "type": "function"
    },
    {
      "inputs": [
        {
          "internalType": "bytes32",
          "name": "",
          "type": "bytes32"
        }
      ],
      "name": "processedExits",
      "outputs": [
        {
          "internalType": "bool",
          "name": "",
          "type": "bool"
        }
      ],
      "stateMutability": "view",
      "type": "function"
    },
    {
      "inputs": [
        {
          "internalType": "bytes",
          "name": "inputData",
          "type": "bytes"
        }
      ],
      "name": "receiveMessage",
      "outputs": [],
      "stateMutability": "nonpayable",
      "type": "function"
    },
    {
      "inputs": [
        {
          "internalType": "address",
          "name": "",
          "type": "address"
        }
      ],
      "name": "rootToChildTokens",
      "outputs": [
        {
          "internalType": "address",
          "name": "",
          "type": "address"
        }
      ],
      "stateMutability": "view",
      "type": "function"
    },
    {
      "inputs": [
        {
          "internalType": "address",
          "name": "_fxChildTunnel",
          "type": "address"
        }
      ],
      "name": "setFxChildTunnel",
      "outputs": [],
      "stateMutability": "nonpayable",
      "type": "function"
    },
    {
      "inputs": [
        {
          "internalType": "address",
          "name": "rootToken",
          "type": "address"
        }
      ],
      "name": "mapToken",
      "outputs": [],
      "stateMutability": "nonpayable",
      "type": "function"
    },
    {
      "inputs": [
        {
          "internalType": "address",
          "name": "rootToken",
          "type": "address"
        },
        {
          "internalType": "address",
          "name": "user",
          "type": "address"
        },
        {
          "internalType": "uint256",
          "name": "amount",
          "type": "uint256"
        },
        {
          "internalType": "bytes",
          "name": "data",
          "type": "bytes"
        },
        {
          "internalType": "uint256",
          "name": "nonce",
          "type": "uint256"
        },
        {
          "internalType": "uint256",
          "name": "deadline",
          "type": "uint256"
        },
        {
          "internalType": "uint8",
          "name": "v",
          "type": "uint8"
        },
        {
          "internalType": "bytes32",
          "name": "r",
          "type": "bytes32"
        },
        {
          "internalType": "bytes32",
          "name": "s",
          "type": "bytes32"
        }
      ],
      "name": "deposit",
      "outputs": [],
      "stateMutability": "nonpayable",
      "type": "function"
    },
    {
      "inputs": [
        {
          "internalType": "address",
          "name": "rootToken",
          "type": "address"
        }
      ],
      "name": "getChildToken",
      "outputs": [
        {
          "internalType": "address",
          "name": "",
          "type": "address"
        }
      ],
      "stateMutability": "view",
      "type": "function"
    },
    {
      "inputs": [
        {
          "internalType": "address",
          "name": "rootToken",
          "type": "address"
        }
      ],
      "name": "isTokenMapped",
      "outputs": [
        {
          "internalType": "bool",
          "name": "",
          "type": "bool"
        }
      ],
      "stateMutability": "view",
      "type": "function"
    },
    {
      "inputs": [
        {
          "internalType": "address",
          "name": "rootToken",
          "type": "address"
        }
      ],
      "name": "computeChildTokenAddress",
      "outputs": [
        {
          "internalType": "address",
          "name": "",
          "type": "address"
        }
      ],
      "stateMutability": "view",
      "type": "function"
    }
  ],
  "bytecode": "0x60a06040523480156200001157600080fd5b5060405162004967380380620049678339818101604052810190620000379190620001c6565b828281600160006101000a81548173ffffffffffffffffffffffffffffffffffffffff021916908373ffffffffffffffffffffffffffffffffffffffff160217905550806000806101000a81548173ffffffffffffffffffffffffffffffffffffffff021916908373ffffffffffffffffffffffffffffffffffffffff1602179055505050620000cd81620000e460201b60201c565b80519060200120608081815250505050506200036b565b60606000693d602d80600a3d3981f360b01b9050600069363d3d373d3d3d363d7360b01b905060008460601b905060006e5af43d82803e903d91602b57fd5bf360881b90508383838360405160200162000142949392919062000315565b604051602081830303815290604052945050505050919050565b600080fd5b600073ffffffffffffffffffffffffffffffffffffffff82169050919050565b60006200018e8262000161565b9050919050565b620001a08162000181565b8114620001ac57600080fd5b50565b600081519050620001c08162000195565b92915050565b600080600060608486031215620001e257620001e16200015c565b5b6000620001f286828701620001af565b93505060206200020586828701620001af565b92505060406200021886828701620001af565b9150509250925092565b60007fffffffffffffffffffff0000000000000000000000000000000000000000000082169050919050565b6000819050919050565b6200026d620002678262000222565b6200024e565b82525050565b60007fffffffffffffffffffffffffffffffffffffffff00000000000000000000000082169050919050565b6000819050919050565b620002be620002b88262000273565b6200029f565b82525050565b60007fffffffffffffffffffffffffffffff000000000000000000000000000000000082169050919050565b6000819050919050565b6200030f6200030982620002c4565b620002f0565b82525050565b600062000323828762000258565b600a8201915062000335828662000258565b600a82019150620003478285620002a9565b601482019150620003598284620002fa565b600f8201915081905095945050505050565b6080516145d262000395600039600081816104bc015281816106cc0152610a4001526145d26000f3fe608060405234801561001057600080fd5b506004361061010b5760003560e01c8063972c4928116100a2578063d81c8e5211610071578063d81c8e52146102e2578063de9b771f14610300578063f4a120f71461031e578063f953cec71461033a578063fa4ff35a146103565761010b565b8063972c49281461025a578063aea4e49e14610278578063c0857ba014610294578063c1b09f4e146102b25761010b565b806369914b3e116100de57806369914b3e146101be5780637337957f146101dc578063886a69ba1461020c57806388e700681461022a5761010b565b80630e387de61461011057806336fb13f51461012e578063607f2d421461015e5780636416c1831461018e575b600080fd5b610118610372565b6040516101259190612cab565b60405180910390f35b61014860048036038101906101439190612d38565b610399565b6040516101559190612d74565b60405180910390f35b61017860048036038101906101739190612dbb565b610402565b6040516101859190612e03565b60405180910390f35b6101a860048036038101906101a39190612d38565b610422565b6040516101b59190612e03565b60405180910390f35b6101c66104ba565b6040516101d39190612cab565b60405180910390f35b6101f660048036038101906101f19190612e1e565b6104de565b6040516102039190612d74565b60405180910390f35b610214610522565b6040516102219190612cab565b60405180910390f35b610244600480360381019061023f9190612d38565b610546565b6040516102519190612d74565b60405180910390f35b610262610579565b60405161026f9190612d74565b60405180910390f35b610292600480360381019061028d9190612d38565b61059f565b005b61029c610674565b6040516102a99190612ed0565b60405180910390f35b6102cc60048036038101906102c79190612d38565b61069a565b6040516102d99190612d74565b60405180910390f35b6102ea61071b565b6040516102f79190612cab565b60405180910390f35b61030861073f565b6040516103159190612f0c565b60405180910390f35b61033860048036038101906103339190612d38565b610763565b005b610354600480360381019061034f919061306d565b610b6b565b005b610370600480360381019061036b9190613125565b610b85565b005b7f8c5261668696ce22758910d05bab8f186d6eb247ceac2af2e82c7dc17669b03660001b81565b6000600460008373ffffffffffffffffffffffffffffffffffffffff1673ffffffffffffffffffffffffffffffffffffffff16815260200190815260200160002060009054906101000a900473ffffffffffffffffffffffffffffffffffffffff169050919050565b60036020528060005260406000206000915054906101000a900460ff1681565b60008073ffffffffffffffffffffffffffffffffffffffff16600460008473ffffffffffffffffffffffffffffffffffffffff1673ffffffffffffffffffffffffffffffffffffffff16815260200190815260200160002060009054906101000a900473ffffffffffffffffffffffffffffffffffffffff1673ffffffffffffffffffffffffffffffffffffffff1614159050919050565b7f000000000000000000000000000000000000000000000000000000000000000081565b60008060ff60f81b8386866040516020016104fc94939291906132c1565b6040516020818303038152906040528051906020012090508060001c9150509392505050565b7f2cef46a936bdc5b7e6e8c71aa04560c41cf7d88bb26901a7e7f4936ff02accad81565b60046020528060005260406000206000915054906101000a900473ffffffffffffffffffffffffffffffffffffffff1681565b600260009054906101000a900473ffffffffffffffffffffffffffffffffffffffff1681565b600073ffffffffffffffffffffffffffffffffffffffff16600260009054906101000a900473ffffffffffffffffffffffffffffffffffffffff1673ffffffffffffffffffffffffffffffffffffffff1614610630576040517f08c379a000000000000000000000000000000000000000000000000000000000815260040161062790613392565b60405180910390fd5b80600260006101000a81548173ffffffffffffffffffffffffffffffffffffffff021916908373ffffffffffffffffffffffffffffffffffffffff16021790555050565b600160009054906101000a900473ffffffffffffffffffffffffffffffffffffffff1681565b600080826040516020016106ae91906133b2565b604051602081830303815290604052805190602001209050610713817f0000000000000000000000000000000000000000000000000000000000000000600260009054906101000a900473ffffffffffffffffffffffffffffffffffffffff166104de565b915050919050565b7f87a7811f4bfedea3d341ad165680ae306b01aaeacc205d227629cf157dd9f82181565b60008054906101000a900473ffffffffffffffffffffffffffffffffffffffff1681565b600073ffffffffffffffffffffffffffffffffffffffff16600460008373ffffffffffffffffffffffffffffffffffffffff1673ffffffffffffffffffffffffffffffffffffffff16815260200190815260200160002060009054906101000a900473ffffffffffffffffffffffffffffffffffffffff1673ffffffffffffffffffffffffffffffffffffffff1614610831576040517f08c379a000000000000000000000000000000000000000000000000000000000815260040161082890613419565b60405180910390fd5b600081905060008173ffffffffffffffffffffffffffffffffffffffff166306fdde036040518163ffffffff1660e01b8152600401600060405180830381865afa158015610883573d6000803e3d6000fd5b505050506040513d6000823e3d601f19601f820116820180604052508101906108ac9190613504565b905060008273ffffffffffffffffffffffffffffffffffffffff166395d89b416040518163ffffffff1660e01b8152600401600060405180830381865afa1580156108fb573d6000803e3d6000fd5b505050506040513d6000823e3d601f19601f820116820180604052508101906109249190613504565b905060008373ffffffffffffffffffffffffffffffffffffffff1663313ce5676040518163ffffffff1660e01b8152600401602060405180830381865afa158015610973573d6000803e3d6000fd5b505050506040513d601f19601f820116820180604052508101906109979190613562565b905060007f2cef46a936bdc5b7e6e8c71aa04560c41cf7d88bb26901a7e7f4936ff02accad868585856040516020016109d394939291906135e2565b6040516020818303038152906040526040516020016109f392919061368a565b6040516020818303038152906040529050610a0d81610da9565b600086604051602001610a2091906133b2565b6040516020818303038152906040528051906020012090506000610a87827f0000000000000000000000000000000000000000000000000000000000000000600260009054906101000a900473ffffffffffffffffffffffffffffffffffffffff166104de565b905080600460008a73ffffffffffffffffffffffffffffffffffffffff1673ffffffffffffffffffffffffffffffffffffffff16815260200190815260200160002060006101000a81548173ffffffffffffffffffffffffffffffffffffffff021916908373ffffffffffffffffffffffffffffffffffffffff1602179055508073ffffffffffffffffffffffffffffffffffffffff168873ffffffffffffffffffffffffffffffffffffffff167fc21cd413746aa9146d86960ed90847c18aa555d8dfd256e0aac3954c41e3cfe260405160405180910390a35050505050505050565b6000610b7682610e5b565b9050610b8181611160565b5050565b600073ffffffffffffffffffffffffffffffffffffffff16600460008b73ffffffffffffffffffffffffffffffffffffffff1673ffffffffffffffffffffffffffffffffffffffff16815260200190815260200160002060009054906101000a900473ffffffffffffffffffffffffffffffffffffffff1673ffffffffffffffffffffffffffffffffffffffff1603610c2257610c2189610763565b5b8873ffffffffffffffffffffffffffffffffffffffff166323b872dd33308a6040518463ffffffff1660e01b8152600401610c5f939291906136c9565b6020604051808303816000875af1158015610c7e573d6000803e3d6000fd5b505050506040513d601f19601f82011682018060405250810190610ca2919061372c565b5060007f87a7811f4bfedea3d341ad165680ae306b01aaeacc205d227629cf157dd9f8218a8a8a8a8a8a8a8a8a604051602001610ce799989796959493929190613759565b604051602081830303815290604052604051602001610d0792919061368a565b6040516020818303038152906040529050610d2181610da9565b8873ffffffffffffffffffffffffffffffffffffffff163373ffffffffffffffffffffffffffffffffffffffff168b73ffffffffffffffffffffffffffffffffffffffff167f8a58355ceb4626422a66b0f36743672dde8507c6be664f0e5b9de8350a1321598b604051610d9591906137ed565b60405180910390a450505050505050505050565b60008054906101000a900473ffffffffffffffffffffffffffffffffffffffff1673ffffffffffffffffffffffffffffffffffffffff1663b4720477600260009054906101000a900473ffffffffffffffffffffffffffffffffffffffff16836040518363ffffffff1660e01b8152600401610e26929190613808565b600060405180830381600087803b158015610e4057600080fd5b505af1158015610e54573d6000803e3d6000fd5b5050505050565b60606000610e6883611346565b90506000610e758261137a565b90506000610e82836113ab565b9050600081610e90846113dc565b610e99866115f2565b604051602001610eab93929190613895565b604051602081830303815290604052805190602001209050600015156003600083815260200190815260200160002060009054906101000a900460ff16151514610f2a576040517f08c379a0000000000000000000000000000000000000000000000000000000008152600401610f2190613940565b60405180910390fd5b60016003600083815260200190815260200160002060006101000a81548160ff0219169083151502179055506000610f6185611623565b90506000610f6e82611748565b9050610f79816117bf565b73ffffffffffffffffffffffffffffffffffffffff16600260009054906101000a900473ffffffffffffffffffffffffffffffffffffffff1673ffffffffffffffffffffffffffffffffffffffff1614611008576040517f08c379a0000000000000000000000000000000000000000000000000000000008152600401610fff906139d2565b60405180910390fd5b6000611013876117f0565b905061103161102184611824565b8761102b8a611832565b84611863565b611070576040517f08c379a000000000000000000000000000000000000000000000000000000000815260040161106790613a64565b60405180910390fd5b61109e8561107d89611b61565b6110868a611b92565b846110908c611bc6565b6110998d611bf7565b611c28565b5060006110aa83611d6f565b90507f8c5261668696ce22758910d05bab8f186d6eb247ceac2af2e82c7dc17669b03660001b6110ec6110e7600084611db490919063ffffffff16565b611de3565b60001b1461112f576040517f08c379a000000000000000000000000000000000000000000000000000000000815260040161112690613ad0565b60405180910390fd5b600061113a84611e66565b80602001905181019061114d9190613b60565b9050809950505050505050505050919050565b600080828060200190518101906111779190613bbe565b915091507f87a7811f4bfedea3d341ad165680ae306b01aaeacc205d227629cf157dd9f821820361130657600080600080848060200190518101906111bc9190613c6d565b93509350935093506111f18330838773ffffffffffffffffffffffffffffffffffffffff16611e97909392919063ffffffff16565b6000600460008673ffffffffffffffffffffffffffffffffffffffff1673ffffffffffffffffffffffffffffffffffffffff16815260200190815260200160002060009054906101000a900473ffffffffffffffffffffffffffffffffffffffff16905061128083838373ffffffffffffffffffffffffffffffffffffffff16611f209092919063ffffffff16565b8273ffffffffffffffffffffffffffffffffffffffff168473ffffffffffffffffffffffffffffffffffffffff168673ffffffffffffffffffffffffffffffffffffffff167f8a58355ceb4626422a66b0f36743672dde8507c6be664f0e5b9de8350a132159856040516112f491906137ed565b60405180910390a45050505050611341565b6040517f08c379a000000000000000000000000000000000000000000000000000000000815260040161133890613d46565b60405180910390fd5b505050565b61134e612c11565b600061136161135c84611fa6565b611fd4565b9050604051806020016040528082815250915050919050565b60606113a4826000015160088151811061139757611396613d66565b5b60200260200101516120e9565b9050919050565b60006113d582600001516002815181106113c8576113c7613d66565b5b6020026020010151611de3565b9050919050565b606060006040518060200160405280600081525090506000835111156115e95760008061140a6000866121a0565b60f81c905060018160ff161480611424575060038160ff16145b156114ee576001600286516114399190613dc4565b6114439190613e06565b67ffffffffffffffff81111561145c5761145b612f42565b5b6040519080825280601f01601f19166020018201604052801561148e5781602001600182028036833780820191505090505b509250600061149e6001876121a0565b905080846000815181106114b5576114b4613d66565b5b60200101907effffffffffffffffffffffffffffffffffffffffffffffffffffffffffffff1916908160001a905350600192505061155a565b60028086516114fd9190613dc4565b6115079190613e06565b67ffffffffffffffff8111156115205761151f612f42565b5b6040519080825280601f01601f1916602001820160405280156115525781602001600182028036833780820191505090505b509250600091505b60008260ff1690505b83518110156115e55761159060028460ff16836115809190613e06565b61158a9190613e3a565b876121a0565b8482815181106115a3576115a2613d66565b5b60200101907effffffffffffffffffffffffffffffffffffffffffffffffffffffffffffff1916908160001a90535080806115dd90613e6e565b915050611563565b5050505b80915050919050565b600061161c826000015160098151811061160f5761160e613d66565b5b6020026020010151611de3565b9050919050565b61162b612c24565b611653826000015160068151811061164657611645613d66565b5b60200260200101516120e9565b8160200181905250600061166a8260200151611fa6565b905061167581612238565b156116905761168381611fd4565b8260000181905250611730565b6000826020015190506000600182516116a99190613e06565b67ffffffffffffffff8111156116c2576116c1612f42565b5b6040519080825280601f01601f1916602001820160405280156116f45781602001600182028036833780820191505090505b50905060008083602101915082602001905061171282828551612285565b61172361171e84611fa6565b611fd4565b8660000181905250505050505b611739836115f2565b82604001818152505050919050565b611750612c45565b600061177a836000015160038151811061176d5761176c613d66565b5b6020026020010151611fd4565b8360400151815181106117905761178f613d66565b5b6020026020010151905060405180604001604052808281526020016117b483611fd4565b815250915050919050565b60006117e982602001516000815181106117dc576117db613d66565b5b6020026020010151612326565b9050919050565b600061181a826000015160058151811061180d5761180c613d66565b5b6020026020010151611de3565b60001b9050919050565b606081602001519050919050565b606061185c826000015160078151811061184f5761184e613d66565b5b60200260200101516120e9565b9050919050565b60008061186f84611fa6565b9050600061187c82611fd4565b905060608060008690506000806118928b6113dc565b905060008151036118ad576000975050505050505050611b59565b60005b8651811015611b505781518311156118d357600098505050505050505050611b59565b6118f68782815181106118e9576118e8613d66565b5b6020026020010151612349565b95508580519060200120841461191757600098505050505050505050611b59565b61193a87828151811061192d5761192c613d66565b5b6020026020010151611fd4565b94506011855103611a2a57815183036119a7578c805190602001206119798660108151811061196c5761196b613d66565b5b60200260200101516120e9565b805190602001200361199657600198505050505050505050611b59565b600098505050505050505050611b59565b60008284815181106119bc576119bb613d66565b5b602001015160f81c60f81b60f81c905060108160ff1611156119ea5760009950505050505050505050611b59565b611a10868260ff1681518110611a0357611a02613d66565b5b60200260200101516123d8565b60001b9450600184611a229190613e3a565b935050611b3d565b6002855103611b2b576000611a63611a5c87600081518110611a4f57611a4e613d66565b5b60200260200101516120e9565b848661240f565b905082518185611a739190613e3a565b03611ad4578d80519060200120611aa487600181518110611a9757611a96613d66565b5b60200260200101516120e9565b8051906020012003611ac25760019950505050505050505050611b59565b60009950505050505050505050611b59565b60008103611aee5760009950505050505050505050611b59565b8084611afa9190613e3a565b9350611b2086600181518110611b1357611b12613d66565b5b60200260200101516123d8565b60001b945050611b3c565b600098505050505050505050611b59565b5b8080611b4890613e6e565b9150506118b0565b50505050505050505b949350505050565b6000611b8b8260000151600381518110611b7e57611b7d613d66565b5b6020026020010151611de3565b9050919050565b6000611bbc8260000151600481518110611baf57611bae613d66565b5b6020026020010151611de3565b60001b9050919050565b6000611bf08260000151600081518110611be357611be2613d66565b5b6020026020010151611de3565b9050919050565b6060611c218260000151600181518110611c1457611c13613d66565b5b60200260200101516120e9565b9050919050565b600080600080600160009054906101000a900473ffffffffffffffffffffffffffffffffffffffff1673ffffffffffffffffffffffffffffffffffffffff166341539d4a876040518263ffffffff1660e01b8152600401611c8991906137ed565b60a060405180830381865afa158015611ca6573d6000803e3d6000fd5b505050506040513d601f19601f82011682018060405250810190611cca9190613ecb565b5093505092509250611d20828b611ce19190613e06565b84878d8d8d8d604051602001611cfa9493929190613f46565b60405160208183030381529060405280519060200120612544909392919063ffffffff16565b611d5f576040517f08c379a0000000000000000000000000000000000000000000000000000000008152600401611d5690613fe0565b60405180910390fd5b8093505050509695505050505050565b611d77612c65565b6040518060200160405280611daa8460200151600181518110611d9d57611d9c613d66565b5b6020026020010151611fd4565b8152509050919050565b611dbc612c78565b82600001518281518110611dd357611dd2613d66565b5b6020026020010151905092915050565b6000808260000151118015611dfd57506021826000015111155b611e0657600080fd5b6000611e1583602001516126b4565b90506000818460000151611e299190613e06565b9050600080838660200151611e3e9190613e3a565b9050805191506020831015611e5a57826020036101000a820491505b81945050505050919050565b6060611e908260200151600281518110611e8357611e82613d66565b5b60200260200101516120e9565b9050919050565b611f1a846323b872dd60e01b858585604051602401611eb8939291906136c9565b604051602081830303815290604052907bffffffffffffffffffffffffffffffffffffffffffffffffffffffff19166020820180517bffffffffffffffffffffffffffffffffffffffffffffffffffffffff8381831617835250505050612773565b50505050565b611fa18363a9059cbb60e01b8484604051602401611f3f929190614000565b604051602081830303815290604052907bffffffffffffffffffffffffffffffffffffffffffffffffffffffff19166020820180517bffffffffffffffffffffffffffffffffffffffffffffffffffffffff8381831617835250505050612773565b505050565b611fae612c78565b600060208301905060405180604001604052808451815260200182815250915050919050565b6060611fdf82612238565b611fe857600080fd5b6000611ff38361283a565b905060008167ffffffffffffffff81111561201157612010612f42565b5b60405190808252806020026020018201604052801561204a57816020015b612037612c78565b81526020019060019003908161202f5790505b509050600061205c85602001516126b4565b856020015161206b9190613e3a565b9050600080600090505b848110156120dc57612086836128c7565b91506040518060400160405280838152602001848152508482815181106120b0576120af613d66565b5b602002602001018190525081836120c79190613e3a565b925080806120d490613e6e565b915050612075565b5082945050505050919050565b606060008260000151116120fc57600080fd5b600061210b83602001516126b4565b9050600081846000015161211f9190613e06565b905060008167ffffffffffffffff81111561213d5761213c612f42565b5b6040519080825280601f01601f19166020018201604052801561216f5781602001600182028036833780820191505090505b509050600081602001905061219484876020015161218d9190613e3a565b82856129a3565b81945050505050919050565b6000806002846121b09190614058565b146121f3576010826002856121c59190614089565b815181106121d6576121d5613d66565b5b602001015160f81c60f81b60f81c6121ee91906140ba565b61222d565b6010826002856122039190614089565b8151811061221457612213613d66565b5b602001015160f81c60f81b60f81c61222c91906140eb565b5b60f81b905092915050565b60008082600001510361224e5760009050612280565b60008083602001519050805160001a915060c060ff168260ff16101561227957600092505050612280565b6001925050505b919050565b6000810315612321575b602060ff1681106122d95782518252602060ff16836122ae9190613e3a565b9250602060ff16826122c09190613e3a565b9150602060ff16816122d29190613e06565b905061228f565b6000810315612321576000600182602060ff166122f69190613e06565b610100612303919061424f565b61230d9190613e06565b905080198451168184511681811785525050505b505050565b6000601582600001511461233957600080fd5b61234282611de3565b9050919050565b60606000826000015167ffffffffffffffff81111561236b5761236a612f42565b5b6040519080825280601f01601f19166020018201604052801561239d5781602001600182028036833780820191505090505b50905060008151036123b257809150506123d3565b60008160200190506123cd84602001518286600001516129a3565b81925050505b919050565b600060218260000151146123eb57600080fd5b600080600184602001516123ff9190613e3a565b9050805191508192505050919050565b600080600090506000612421866113dc565b90506000815167ffffffffffffffff8111156124405761243f612f42565b5b6040519080825280601f01601f1916602001820160405280156124725781602001600182028036833780820191505090505b50905060008590505b8251866124889190613e3a565b8110156125135760008782815181106124a4576124a3613d66565b5b602001015160f81c60f81b9050808388846124bf9190613e06565b815181106124d0576124cf613d66565b5b60200101907effffffffffffffffffffffffffffffffffffffffffffffffffffffffffffff1916908160001a90535050808061250b90613e6e565b91505061247b565b5080805190602001208280519060200120036125325781519250612537565b600092505b8293505050509392505050565b600080602083516125559190614058565b14612595576040517f08c379a000000000000000000000000000000000000000000000000000000000815260040161258c906142e6565b60405180910390fd5b6000602083516125a59190614089565b90508060026125b4919061424f565b85106125f5576040517f08c379a00000000000000000000000000000000000000000000000000000000081526004016125ec90614352565b60405180910390fd5b6000808790506000602090505b855181116126a357808601519250600060028961261f9190614058565b03612654578183604051602001612637929190614372565b604051602081830303815290604052805190602001209150612680565b8282604051602001612667929190614372565b6040516020818303038152906040528051906020012091505b60028861268d9190614089565b975060208161269c9190613e3a565b9050612602565b508581149350505050949350505050565b600080825160001a9050608060ff168110156126d457600091505061276e565b60b860ff168110806126f9575060c060ff1681101580156126f8575060f860ff1681105b5b1561270857600191505061276e565b60c060ff168110156127435760018060b8612723919061439e565b60ff16826127319190613e06565b61273b9190613e3a565b91505061276e565b60018060f8612752919061439e565b60ff16826127609190613e06565b61276a9190613e3a565b9150505b919050565b60006127d5826040518060400160405280602081526020017f5361666545524332303a206c6f772d6c6576656c2063616c6c206661696c65648152508573ffffffffffffffffffffffffffffffffffffffff16612a449092919063ffffffff16565b905060008151111561283557808060200190518101906127f5919061372c565b612834576040517f08c379a000000000000000000000000000000000000000000000000000000000815260040161282b90614445565b60405180910390fd5b5b505050565b60008082600001510361285057600090506128c2565b60008061286084602001516126b4565b846020015161286f9190613e3a565b90506000846000015185602001516128879190613e3a565b90505b808210156128bb5761289b826128c7565b826128a69190613e3a565b915082806128b390613e6e565b93505061288a565b8293505050505b919050565b6000806000835160001a9050608060ff168110156128e85760019150612999565b60b860ff16811015612917576001608060ff16826129069190613e06565b6129109190613e3a565b9150612998565b60c060ff168110156129475760b78103600185019450806020036101000a85510460018201810193505050612997565b60f860ff1681101561297657600160c060ff16826129659190613e06565b61296f9190613e3a565b9150612996565b60f78103600185019450806020036101000a855104600182018101935050505b5b5b5b8192505050919050565b6000810315612a3f575b602060ff1681106129f75782518252602060ff16836129cc9190613e3a565b9250602060ff16826129de9190613e3a565b9150602060ff16816129f09190613e06565b90506129ad565b6000810315612a3f576000600182602060ff16612a149190613e06565b610100612a21919061424f565b612a2b9190613e06565b905080198451168184511681811785525050505b505050565b6060612a538484600085612a5c565b90509392505050565b606082471015612aa1576040517f08c379a0000000000000000000000000000000000000000000000000000000008152600401612a98906144d7565b60405180910390fd5b6000808673ffffffffffffffffffffffffffffffffffffffff168587604051612aca91906144f7565b60006040518083038185875af1925050503d8060008114612b07576040519150601f19603f3d011682016040523d82523d6000602084013e612b0c565b606091505b5091509150612b1d87838387612b29565b92505050949350505050565b60608315612b8b576000835103612b8357612b4385612b9e565b612b82576040517f08c379a0000000000000000000000000000000000000000000000000000000008152600401612b799061455a565b60405180910390fd5b5b829050612b96565b612b958383612bc1565b5b949350505050565b6000808273ffffffffffffffffffffffffffffffffffffffff163b119050919050565b600082511115612bd45781518083602001fd5b806040517f08c379a0000000000000000000000000000000000000000000000000000000008152600401612c08919061457a565b60405180910390fd5b6040518060200160405280606081525090565b60405180606001604052806060815260200160608152602001600081525090565b6040518060400160405280612c58612c78565b8152602001606081525090565b6040518060200160405280606081525090565b604051806040016040528060008152602001600081525090565b6000819050919050565b612ca581612c92565b82525050565b6000602082019050612cc06000830184612c9c565b92915050565b6000604051905090565b600080fd5b600080fd5b600073ffffffffffffffffffffffffffffffffffffffff82169050919050565b6000612d0582612cda565b9050919050565b612d1581612cfa565b8114612d2057600080fd5b50565b600081359050612d3281612d0c565b92915050565b600060208284031215612d4e57612d4d612cd0565b5b6000612d5c84828501612d23565b91505092915050565b612d6e81612cfa565b82525050565b6000602082019050612d896000830184612d65565b92915050565b612d9881612c92565b8114612da357600080fd5b50565b600081359050612db581612d8f565b92915050565b600060208284031215612dd157612dd0612cd0565b5b6000612ddf84828501612da6565b91505092915050565b60008115159050919050565b612dfd81612de8565b82525050565b6000602082019050612e186000830184612df4565b92915050565b600080600060608486031215612e3757612e36612cd0565b5b6000612e4586828701612da6565b9350506020612e5686828701612da6565b9250506040612e6786828701612d23565b9150509250925092565b6000819050919050565b6000612e96612e91612e8c84612cda565b612e71565b612cda565b9050919050565b6000612ea882612e7b565b9050919050565b6000612eba82612e9d565b9050919050565b612eca81612eaf565b82525050565b6000602082019050612ee56000830184612ec1565b92915050565b6000612ef682612e9d565b9050919050565b612f0681612eeb565b82525050565b6000602082019050612f216000830184612efd565b92915050565b600080fd5b600080fd5b6000601f19601f8301169050919050565b7f4e487b7100000000000000000000000000000000000000000000000000000000600052604160045260246000fd5b612f7a82612f31565b810181811067ffffffffffffffff82111715612f9957612f98612f42565b5b80604052505050565b6000612fac612cc6565b9050612fb88282612f71565b919050565b600067ffffffffffffffff821115612fd857612fd7612f42565b5b612fe182612f31565b9050602081019050919050565b82818337600083830152505050565b600061301061300b84612fbd565b612fa2565b90508281526020810184848401111561302c5761302b612f2c565b5b613037848285612fee565b509392505050565b600082601f83011261305457613053612f27565b5b8135613064848260208601612ffd565b91505092915050565b60006020828403121561308357613082612cd0565b5b600082013567ffffffffffffffff8111156130a1576130a0612cd5565b5b6130ad8482850161303f565b91505092915050565b6000819050919050565b6130c9816130b6565b81146130d457600080fd5b50565b6000813590506130e6816130c0565b92915050565b600060ff82169050919050565b613102816130ec565b811461310d57600080fd5b50565b60008135905061311f816130f9565b92915050565b60008060008060008060008060006101208a8c03121561314857613147612cd0565b5b60006131568c828d01612d23565b99505060206131678c828d01612d23565b98505060406131788c828d016130d7565b97505060608a013567ffffffffffffffff81111561319957613198612cd5565b5b6131a58c828d0161303f565b96505060806131b68c828d016130d7565b95505060a06131c78c828d016130d7565b94505060c06131d88c828d01613110565b93505060e06131e98c828d01612da6565b9250506101006131fb8c828d01612da6565b9150509295985092959850929598565b60007fff0000000000000000000000000000000000000000000000000000000000000082169050919050565b6000819050919050565b61325261324d8261320b565b613237565b82525050565b60008160601b9050919050565b600061327082613258565b9050919050565b600061328282613265565b9050919050565b61329a61329582612cfa565b613277565b82525050565b6000819050919050565b6132bb6132b682612c92565b6132a0565b82525050565b60006132cd8287613241565b6001820191506132dd8286613289565b6014820191506132ed82856132aa565b6020820191506132fd82846132aa565b60208201915081905095945050505050565b600082825260208201905092915050565b7f467842617365526f6f7454756e6e656c3a204348494c445f54554e4e454c5f4160008201527f4c52454144595f53455400000000000000000000000000000000000000000000602082015250565b600061337c602a8361330f565b915061338782613320565b604082019050919050565b600060208201905081810360008301526133ab8161336f565b9050919050565b60006133be8284613289565b60148201915081905092915050565b7f56616c6964526f6f7454756e6e656c3a20414c52454144595f4d415050454400600082015250565b6000613403601f8361330f565b915061340e826133cd565b602082019050919050565b60006020820190508181036000830152613432816133f6565b9050919050565b600067ffffffffffffffff82111561345457613453612f42565b5b61345d82612f31565b9050602081019050919050565b60005b8381101561348857808201518184015260208101905061346d565b60008484015250505050565b60006134a76134a284613439565b612fa2565b9050828152602081018484840111156134c3576134c2612f2c565b5b6134ce84828561346a565b509392505050565b600082601f8301126134eb576134ea612f27565b5b81516134fb848260208601613494565b91505092915050565b60006020828403121561351a57613519612cd0565b5b600082015167ffffffffffffffff81111561353857613537612cd5565b5b613544848285016134d6565b91505092915050565b60008151905061355c816130f9565b92915050565b60006020828403121561357857613577612cd0565b5b60006135868482850161354d565b91505092915050565b600081519050919050565b60006135a58261358f565b6135af818561330f565b93506135bf81856020860161346a565b6135c881612f31565b840191505092915050565b6135dc816130ec565b82525050565b60006080820190506135f76000830187612d65565b8181036020830152613609818661359a565b9050818103604083015261361d818561359a565b905061362c60608301846135d3565b95945050505050565b600081519050919050565b600082825260208201905092915050565b600061365c82613635565b6136668185613640565b935061367681856020860161346a565b61367f81612f31565b840191505092915050565b600060408201905061369f6000830185612c9c565b81810360208301526136b18184613651565b90509392505050565b6136c3816130b6565b82525050565b60006060820190506136de6000830186612d65565b6136eb6020830185612d65565b6136f860408301846136ba565b949350505050565b61370981612de8565b811461371457600080fd5b50565b60008151905061372681613700565b92915050565b60006020828403121561374257613741612cd0565b5b600061375084828501613717565b91505092915050565b60006101208201905061376f600083018c612d65565b61377c602083018b612d65565b613789604083018a6136ba565b818103606083015261379b8189613651565b90506137aa60808301886136ba565b6137b760a08301876136ba565b6137c460c08301866135d3565b6137d160e0830185612c9c565b6137df610100830184612c9c565b9a9950505050505050505050565b600060208201905061380260008301846136ba565b92915050565b600060408201905061381d6000830185612d65565b818103602083015261382f8184613651565b90509392505050565b6000819050919050565b61385361384e826130b6565b613838565b82525050565b600081905092915050565b600061386f82613635565b6138798185613859565b935061388981856020860161346a565b80840191505092915050565b60006138a18286613842565b6020820191506138b18285613864565b91506138bd8284613842565b602082019150819050949350505050565b7f4678526f6f7454756e6e656c3a20455849545f414c52454144595f50524f434560008201527f5353454400000000000000000000000000000000000000000000000000000000602082015250565b600061392a60248361330f565b9150613935826138ce565b604082019050919050565b600060208201905081810360008301526139598161391d565b9050919050565b7f4678526f6f7454756e6e656c3a20494e56414c49445f46585f4348494c445f5460008201527f554e4e454c000000000000000000000000000000000000000000000000000000602082015250565b60006139bc60258361330f565b91506139c782613960565b604082019050919050565b600060208201905081810360008301526139eb816139af565b9050919050565b7f4678526f6f7454756e6e656c3a20494e56414c49445f524543454950545f505260008201527f4f4f460000000000000000000000000000000000000000000000000000000000602082015250565b6000613a4e60238361330f565b9150613a59826139f2565b604082019050919050565b60006020820190508181036000830152613a7d81613a41565b9050919050565b7f4678526f6f7454756e6e656c3a20494e56414c49445f5349474e415455524500600082015250565b6000613aba601f8361330f565b9150613ac582613a84565b602082019050919050565b60006020820190508181036000830152613ae981613aad565b9050919050565b6000613b03613afe84612fbd565b612fa2565b905082815260208101848484011115613b1f57613b1e612f2c565b5b613b2a84828561346a565b509392505050565b600082601f830112613b4757613b46612f27565b5b8151613b57848260208601613af0565b91505092915050565b600060208284031215613b7657613b75612cd0565b5b600082015167ffffffffffffffff811115613b9457613b93612cd5565b5b613ba084828501613b32565b91505092915050565b600081519050613bb881612d8f565b92915050565b60008060408385031215613bd557613bd4612cd0565b5b6000613be385828601613ba9565b925050602083015167ffffffffffffffff811115613c0457613c03612cd5565b5b613c1085828601613b32565b9150509250929050565b6000613c2582612cda565b9050919050565b613c3581613c1a565b8114613c4057600080fd5b50565b600081519050613c5281613c2c565b92915050565b600081519050613c67816130c0565b92915050565b60008060008060808587031215613c8757613c86612cd0565b5b6000613c9587828801613c43565b9450506020613ca687828801613c43565b9350506040613cb787828801613c43565b9250506060613cc887828801613c58565b91505092959194509250565b7f56616c6964526f6f7454756e6e656c3a20494e56414c49445f53594e435f545960008201527f5045000000000000000000000000000000000000000000000000000000000000602082015250565b6000613d3060228361330f565b9150613d3b82613cd4565b604082019050919050565b60006020820190508181036000830152613d5f81613d23565b9050919050565b7f4e487b7100000000000000000000000000000000000000000000000000000000600052603260045260246000fd5b7f4e487b7100000000000000000000000000000000000000000000000000000000600052601160045260246000fd5b6000613dcf826130b6565b9150613dda836130b6565b9250828202613de8816130b6565b91508282048414831517613dff57613dfe613d95565b5b5092915050565b6000613e11826130b6565b9150613e1c836130b6565b9250828203905081811115613e3457613e33613d95565b5b92915050565b6000613e45826130b6565b9150613e50836130b6565b9250828201905080821115613e6857613e67613d95565b5b92915050565b6000613e79826130b6565b91507fffffffffffffffffffffffffffffffffffffffffffffffffffffffffffffffff8203613eab57613eaa613d95565b5b600182019050919050565b600081519050613ec581612d0c565b92915050565b600080600080600060a08688031215613ee757613ee6612cd0565b5b6000613ef588828901613ba9565b9550506020613f0688828901613c58565b9450506040613f1788828901613c58565b9350506060613f2888828901613c58565b9250506080613f3988828901613eb6565b9150509295509295909350565b6000613f528287613842565b602082019150613f628286613842565b602082019150613f7282856132aa565b602082019150613f8282846132aa565b60208201915081905095945050505050565b7f4678526f6f7454756e6e656c3a20494e56414c49445f48454144455200000000600082015250565b6000613fca601c8361330f565b9150613fd582613f94565b602082019050919050565b60006020820190508181036000830152613ff981613fbd565b9050919050565b60006040820190506140156000830185612d65565b61402260208301846136ba565b9392505050565b7f4e487b7100000000000000000000000000000000000000000000000000000000600052601260045260246000fd5b6000614063826130b6565b915061406e836130b6565b92508261407e5761407d614029565b5b828206905092915050565b6000614094826130b6565b915061409f836130b6565b9250826140af576140ae614029565b5b828204905092915050565b60006140c5826130ec565b91506140d0836130ec565b9250826140e0576140df614029565b5b828206905092915050565b60006140f6826130ec565b9150614101836130ec565b92508261411157614110614029565b5b828204905092915050565b60008160011c9050919050565b6000808291508390505b60018511156141735780860481111561414f5761414e613d95565b5b600185161561415e5780820291505b808102905061416c8561411c565b9450614133565b94509492505050565b60008261418c5760019050614248565b8161419a5760009050614248565b81600181146141b057600281146141ba576141e9565b6001915050614248565b60ff8411156141cc576141cb613d95565b5b8360020a9150848211156141e3576141e2613d95565b5b50614248565b5060208310610133831016604e8410600b841016171561421e5782820a90508381111561421957614218613d95565b5b614248565b61422b8484846001614129565b9250905081840481111561424257614241613d95565b5b81810290505b9392505050565b600061425a826130b6565b9150614265836130b6565b92506142927fffffffffffffffffffffffffffffffffffffffffffffffffffffffffffffffff848461417c565b905092915050565b7f496e76616c69642070726f6f66206c656e677468000000000000000000000000600082015250565b60006142d060148361330f565b91506142db8261429a565b602082019050919050565b600060208201905081810360008301526142ff816142c3565b9050919050565b7f4c65616620696e64657820697320746f6f206269670000000000000000000000600082015250565b600061433c60158361330f565b915061434782614306565b602082019050919050565b6000602082019050818103600083015261436b8161432f565b9050919050565b600061437e82856132aa565b60208201915061438e82846132aa565b6020820191508190509392505050565b60006143a9826130ec565b91506143b4836130ec565b9250828203905060ff8111156143cd576143cc613d95565b5b92915050565b7f5361666545524332303a204552433230206f7065726174696f6e20646964206e60008201527f6f74207375636365656400000000000000000000000000000000000000000000602082015250565b600061442f602a8361330f565b915061443a826143d3565b604082019050919050565b6000602082019050818103600083015261445e81614422565b9050919050565b7f416464726573733a20696e73756666696369656e742062616c616e636520666f60008201527f722063616c6c0000000000000000000000000000000000000000000000000000602082015250565b60006144c160268361330f565b91506144cc82614465565b604082019050919050565b600060208201905081810360008301526144f0816144b4565b9050919050565b60006145038284613864565b915081905092915050565b7f416464726573733a2063616c6c20746f206e6f6e2d636f6e7472616374000000600082015250565b6000614544601d8361330f565b915061454f8261450e565b602082019050919050565b6000602082019050818103600083015261457381614537565b9050919050565b60006020820190508181036000830152614594818461359a565b90509291505056fea264697066735822122070339e5a6d24f02487fd175b8a79b6c7f1820ff08f7bad0635ddc3e6ad06bef664736f6c63430008110033",
  "immutableReferences": {
    "5606": [
      {
        "length": 32,
        "start": 1212
      },
      {
        "length": 32,
        "start": 1740
      },
      {
        "length": 32,
        "start": 2624
      }
    ]
  },
  "source": "// SPDX-License-Identifier: MIT\npragma solidity ^0.8.0;\n\nimport {ERC20Permit} from \"@openzeppelin/contracts/token/ERC20/extensions/draft-ERC20Permit.sol\";\nimport {FxBaseRootTunnel} from \"@maticnetwork/fx-portal/contracts/tunnel/FxBaseRootTunnel.sol\";\nimport {Create2} from \"@maticnetwork/fx-portal/contracts/lib/Create2.sol\";\nimport {SafeERC20, IERC20} from \"@openzeppelin/contracts/token/ERC20/utils/SafeERC20.sol\";\n\n/**\n * @title RootTunnel\n */\ncontract RootTunnel is FxBaseRootTunnel, Create2 {\n    using SafeERC20 for IERC20;\n    // maybe DEPOSIT and MAP_TOKEN can be reduced to bytes4 to save gas\n    bytes32 public constant DEPOSIT = keccak256(\"DEPOSIT\");\n    bytes32 public constant MAP_TOKEN = keccak256(\"MAP_TOKEN\");\n\n    event TokenMappedERC20(\n        address indexed rootToken,\n        address indexed childToken\n    );\n    event FxWithdrawERC20(\n        address indexed rootToken,\n        address indexed childToken,\n        address indexed userAddress,\n        uint256 amount\n    );\n    event FxDepositERC20(\n        address indexed rootToken,\n        address indexed depositor,\n        address indexed userAddress,\n        uint256 amount\n    );\n\n    mapping(address => address) public rootToChildTokens;\n    bytes32 public immutable childTokenTemplateCodeHash;\n\n    constructor(\n        address _checkpointManager,\n        address _fxRoot,\n        address _fxERC20Token\n    ) FxBaseRootTunnel(_checkpointManager, _fxRoot) {\n        // compute child token template code hash\n        childTokenTemplateCodeHash = keccak256(\n            minimalProxyCreationCode(_fxERC20Token)\n        );\n    }\n\n    /**\n     * @notice Map a token to enable its movement via the PoS Portal, callable by everyone\n     * @param rootToken address of token on root chain\n     */\n    function mapToken(address rootToken) public {\n        // check if token is already mapped\n        require(\n            rootToChildTokens[rootToken] == address(0x0),\n            \"ValidRootTunnel: ALREADY_MAPPED\"\n        );\n\n        // name, symbol and decimals\n        ERC20Permit rootTokenContract = ERC20Permit(rootToken);\n        string memory name = rootTokenContract.name();\n        string memory symbol = rootTokenContract.symbol();\n        uint8 decimals = rootTokenContract.decimals();\n\n        // MAP_TOKEN, encode(rootToken, name, symbol, decimals)\n        bytes memory message = abi.encode(\n            MAP_TOKEN,\n            abi.encode(rootToken, name, symbol, decimals)\n        );\n        _sendMessageToChild(message);\n\n        // compute child token address before deployment using create2\n        bytes32 salt = keccak256(abi.encodePacked(rootToken));\n        address childToken = computedCreate2Address(\n            salt,\n            childTokenTemplateCodeHash,\n            fxChildTunnel\n        );\n\n        // add into mapped tokens\n        rootToChildTokens[rootToken] = childToken;\n        emit TokenMappedERC20(rootToken, childToken);\n    }\n\n    function deposit(\n        address rootToken, // root token\n        address user, // user address on matic\n        uint256 amount, // amount of tokens\n        bytes memory data, // data to pass to receiver\n        uint256 nonce, // nonce\n        uint256 deadline, // deadline\n        uint8 v, // v is the recovery byte, which is either 27 or 28\n        bytes32 r, // r is the output of the ECDSA signature\n        bytes32 s // s is the output of the ECDSA signature\n    ) public {\n        // map token if not mapped\n        if (rootToChildTokens[rootToken] == address(0x0)) {\n            mapToken(rootToken);\n        }\n\n        // transfer from depositor to this contract\n        ERC20Permit(rootToken).transferFrom(\n            msg.sender, // depositor\n            address(this), // manager contract\n            amount\n        );\n        // encode message\n        bytes memory message = abi.encode(\n            DEPOSIT,\n            abi.encode(rootToken, user, amount, data, nonce, deadline, v, r, s)\n        );\n\n        // send message to child chain\n        _sendMessageToChild(message);\n\n        // emit event\n        emit FxDepositERC20(rootToken, msg.sender, user, amount);\n    }\n\n    /**\n     * @notice Get child token address mapped to a root token\n     * @param rootToken address of token on root chain\n     * @return child token address\n     */\n    function getChildToken(address rootToken) public view returns (address) {\n        return rootToChildTokens[rootToken];\n    }\n\n    /**\n     * @notice Checks if a token is already mapped\n     * @param rootToken address of token on root chain\n     * @return true if token is already mapped, otherwise false\n     */\n    function isTokenMapped(address rootToken) public view returns (bool) {\n        return (rootToChildTokens[rootToken] != address(0x0));\n    }\n\n    /**\n     * @notice Computes the child token address using create2\n     * @param rootToken address of token on root chain\n     * @return child token address\n     */\n    function computeChildTokenAddress(address rootToken)\n        public\n        view\n        returns (address)\n    {\n        bytes32 salt = keccak256(abi.encodePacked(rootToken));\n        return\n            computedCreate2Address(\n                salt,\n                childTokenTemplateCodeHash,\n                fxChildTunnel\n            );\n    }\n\n    function _processMessageFromChild(bytes memory data) internal override {\n        (bytes32 syncType, bytes memory syncData) = abi.decode(\n            data,\n            (bytes32, bytes)\n        );\n\n        if (syncType == DEPOSIT) {\n            (\n                address rootToken,\n                address depositor,\n                address user,\n                uint256 amount\n            ) = abi.decode(syncData, (address, address, address, uint256));\n\n            // transfer rootToken to this contract\n            IERC20(rootToken).safeTransferFrom(\n                depositor,\n                address(this),\n                amount\n            );\n\n            // transfer childToken to user on matic\n            address childToken = rootToChildTokens[rootToken];\n            IERC20(childToken).safeTransfer(user, amount);\n\n            emit FxDepositERC20(rootToken, depositor, user, amount);\n        } else {\n            revert(\"ValidRootTunnel: INVALID_SYNC_TYPE\");\n        }\n    }\n}\n",
  "sourcePath": "/Users/gregorycorin/Desktop/Vetri_dev/custom-bridge/contracts/RootTunnel.sol",
  "compiler": {
    "name": "solc",
    "version": "0.8.17+commit.8df45f5f.Emscripten.clang"
  },
  "schemaVersion": "3.4.10",
  "updatedAt": "2023-02-26T14:51:10.512Z",
  "devdoc": {
    "kind": "dev",
    "methods": {
      "computeChildTokenAddress(address)": {
        "params": {
          "rootToken": "address of token on root chain"
        },
        "returns": {
          "_0": "child token address"
        }
      },
      "getChildToken(address)": {
        "params": {
          "rootToken": "address of token on root chain"
        },
        "returns": {
          "_0": "child token address"
        }
      },
      "isTokenMapped(address)": {
        "params": {
          "rootToken": "address of token on root chain"
        },
        "returns": {
          "_0": "true if token is already mapped, otherwise false"
        }
      },
      "mapToken(address)": {
        "params": {
          "rootToken": "address of token on root chain"
        }
      },
      "receiveMessage(bytes)": {
        "details": "This function verifies if the transaction actually happened on child chain",
        "params": {
          "inputData": "RLP encoded data of the reference tx containing following list of fields  0 - headerNumber - Checkpoint header block number containing the reference tx  1 - blockProof - Proof that the block header (in the child chain) is a leaf in the submitted merkle root  2 - blockNumber - Block number containing the reference tx on child chain  3 - blockTime - Reference tx block time  4 - txRoot - Transactions root of block  5 - receiptRoot - Receipts root of block  6 - receipt - Receipt of the reference transaction  7 - receiptProof - Merkle proof of the reference receipt  8 - branchMask - 32 bits denoting the path of receipt in merkle tree  9 - receiptLogIndex - Log Index to read from the receipt"
        }
      }
    },
    "title": "RootTunnel",
    "version": 1
  },
  "userdoc": {
    "kind": "user",
    "methods": {
      "computeChildTokenAddress(address)": {
        "notice": "Computes the child token address using create2"
      },
      "getChildToken(address)": {
        "notice": "Get child token address mapped to a root token"
      },
      "isTokenMapped(address)": {
        "notice": "Checks if a token is already mapped"
      },
      "mapToken(address)": {
        "notice": "Map a token to enable its movement via the PoS Portal, callable by everyone"
      },
      "receiveMessage(bytes)": {
        "notice": "receive message from  L2 to L1, validated by proof"
      }
    },
    "version": 1
  }
}